{
  "contractName": "ConfCert",
  "abi": [
    {
      "inputs": [],
      "stateMutability": "nonpayable",
      "type": "constructor"
    },
    {
      "anonymous": false,
      "inputs": [
        {
          "indexed": false,
          "internalType": "uint256",
          "name": "certId",
          "type": "uint256"
        },
        {
          "indexed": false,
          "internalType": "string",
          "name": "studentName",
          "type": "string"
        },
        {
          "indexed": false,
          "internalType": "string",
          "name": "ipfsHash",
          "type": "string"
        }
      ],
      "name": "CertificateIssued",
      "type": "event"
    },
    {
      "inputs": [
        {
          "internalType": "uint256",
          "name": "",
          "type": "uint256"
        }
      ],
      "name": "certificates",
      "outputs": [
        {
          "internalType": "uint256",
          "name": "certId",
          "type": "uint256"
        },
        {
          "internalType": "string",
          "name": "studentName",
          "type": "string"
        },
        {
          "internalType": "string",
          "name": "ipfsHash",
          "type": "string"
        }
      ],
      "stateMutability": "view",
      "type": "function",
      "constant": true
    },
    {
      "inputs": [],
      "name": "nextCertId",
      "outputs": [
        {
          "internalType": "uint256",
          "name": "",
          "type": "uint256"
        }
      ],
      "stateMutability": "view",
      "type": "function",
      "constant": true
    },
    {
      "inputs": [
        {
          "internalType": "string",
          "name": "_studentName",
          "type": "string"
        },
        {
          "internalType": "string",
          "name": "_ipfsHash",
          "type": "string"
        }
      ],
      "name": "issueCertificate",
      "outputs": [],
      "stateMutability": "nonpayable",
      "type": "function"
    },
    {
      "inputs": [
        {
          "internalType": "uint256",
          "name": "_certId",
          "type": "uint256"
        }
      ],
      "name": "getCertificate",
      "outputs": [
        {
          "internalType": "string",
          "name": "",
          "type": "string"
        },
        {
          "internalType": "string",
          "name": "",
          "type": "string"
        }
      ],
      "stateMutability": "view",
      "type": "function",
      "constant": true
    }
  ],
  "bytecode": "0x608060405234801561001057600080fd5b506103e8600081905550610b3c806100296000396000f3fe608060405234801561001057600080fd5b506004361061004c5760003560e01c8063211bbe71146100515780632a8e6a8e1461006d57806351640fee1461008b578063663b3e22146100bc575b600080fd5b61006b600480360381019061006691906105b1565b6100ee565b005b6100756101b0565b6040516100829190610642565b60405180910390f35b6100a560048036038101906100a09190610689565b6101b6565b6040516100b3929190610735565b60405180910390f35b6100d660048036038101906100d19190610689565b61031d565b6040516100e59392919061076c565b60405180910390f35b600080815480929190610100906107e0565b9190505550604051806060016040528060005481526020018381526020018281525060016000805481526020019081526020016000206000820151816000015560208201518160010190816101559190610a34565b50604082015181600201908161016b9190610a34565b509050507f55e235e38225040825e04ea5d7545c53f47415b5543ec6bf898aa3a96742d5f960005483836040516101a49392919061076c565b60405180910390a15050565b60005481565b606080600060016000858152602001908152602001600020604051806060016040529081600082015481526020016001820180546101f390610857565b80601f016020809104026020016040519081016040528092919081815260200182805461021f90610857565b801561026c5780601f106102415761010080835404028352916020019161026c565b820191906000526020600020905b81548152906001019060200180831161024f57829003601f168201915b5050505050815260200160028201805461028590610857565b80601f01602080910402602001604051908101604052809291908181526020018280546102b190610857565b80156102fe5780601f106102d3576101008083540402835291602001916102fe565b820191906000526020600020905b8154815290600101906020018083116102e157829003601f168201915b5050505050815250509050806020015181604001519250925050915091565b600160205280600052604060002060009150905080600001549080600101805461034690610857565b80601f016020809104026020016040519081016040528092919081815260200182805461037290610857565b80156103bf5780601f10610394576101008083540402835291602001916103bf565b820191906000526020600020905b8154815290600101906020018083116103a257829003601f168201915b5050505050908060020180546103d490610857565b80601f016020809104026020016040519081016040528092919081815260200182805461040090610857565b801561044d5780601f106104225761010080835404028352916020019161044d565b820191906000526020600020905b81548152906001019060200180831161043057829003601f168201915b5050505050905083565b6000604051905090565b600080fd5b600080fd5b600080fd5b600080fd5b6000601f19601f8301169050919050565b7f4e487b7100000000000000000000000000000000000000000000000000000000600052604160045260246000fd5b6104be82610475565b810181811067ffffffffffffffff821117156104dd576104dc610486565b5b80604052505050565b60006104f0610457565b90506104fc82826104b5565b919050565b600067ffffffffffffffff82111561051c5761051b610486565b5b61052582610475565b9050602081019050919050565b82818337600083830152505050565b600061055461054f84610501565b6104e6565b9050828152602081018484840111156105705761056f610470565b5b61057b848285610532565b509392505050565b600082601f8301126105985761059761046b565b5b81356105a8848260208601610541565b91505092915050565b600080604083850312156105c8576105c7610461565b5b600083013567ffffffffffffffff8111156105e6576105e5610466565b5b6105f285828601610583565b925050602083013567ffffffffffffffff81111561061357610612610466565b5b61061f85828601610583565b9150509250929050565b6000819050919050565b61063c81610629565b82525050565b60006020820190506106576000830184610633565b92915050565b61066681610629565b811461067157600080fd5b50565b6000813590506106838161065d565b92915050565b60006020828403121561069f5761069e610461565b5b60006106ad84828501610674565b91505092915050565b600081519050919050565b600082825260208201905092915050565b60005b838110156106f05780820151818401526020810190506106d5565b60008484015250505050565b6000610707826106b6565b61071181856106c1565b93506107218185602086016106d2565b61072a81610475565b840191505092915050565b6000604082019050818103600083015261074f81856106fc565b9050818103602083015261076381846106fc565b90509392505050565b60006060820190506107816000830186610633565b818103602083015261079381856106fc565b905081810360408301526107a781846106fc565b9050949350505050565b7f4e487b7100000000000000000000000000000000000000000000000000000000600052601160045260246000fd5b60006107eb82610629565b91507fffffffffffffffffffffffffffffffffffffffffffffffffffffffffffffffff820361081d5761081c6107b1565b5b600182019050919050565b7f4e487b7100000000000000000000000000000000000000000000000000000000600052602260045260246000fd5b6000600282049050600182168061086f57607f821691505b60208210810361088257610881610828565b5b50919050565b60008190508160005260206000209050919050565b60006020601f8301049050919050565b600082821b905092915050565b6000600883026108ea7fffffffffffffffffffffffffffffffffffffffffffffffffffffffffffffffff826108ad565b6108f486836108ad565b95508019841693508086168417925050509392505050565b6000819050919050565b600061093161092c61092784610629565b61090c565b610629565b9050919050565b6000819050919050565b61094b83610916565b61095f61095782610938565b8484546108ba565b825550505050565b600090565b610974610967565b61097f818484610942565b505050565b5b818110156109a35761099860008261096c565b600181019050610985565b5050565b601f8211156109e8576109b981610888565b6109c28461089d565b810160208510156109d1578190505b6109e56109dd8561089d565b830182610984565b50505b505050565b600082821c905092915050565b6000610a0b600019846008026109ed565b1980831691505092915050565b6000610a2483836109fa565b9150826002028217905092915050565b610a3d826106b6565b67ffffffffffffffff811115610a5657610a55610486565b5b610a608254610857565b610a6b8282856109a7565b600060209050601f831160018114610a9e5760008415610a8c578287015190505b610a968582610a18565b865550610afe565b601f198416610aac86610888565b60005b82811015610ad457848901518255600182019150602085019450602081019050610aaf565b86831015610af15784890151610aed601f8916826109fa565b8355505b6001600288020188555050505b50505050505056fea2646970667358221220db15425e33419529c5fb8428ceb7718f16c7e063c766b099978407026198d00864736f6c63430008130033",
  "immutableReferences": {},
  "source": "// SPDX-License-Identifier: MIT\r\npragma solidity ^0.8.0;\r\n\r\ncontract ConfCert {\r\n\r\n    struct Certificate {\r\n        uint certId;\r\n        string studentName;\r\n        string ipfsHash;\r\n    }\r\n\r\n    uint public nextCertId;\r\n    mapping(uint => Certificate) public certificates;\r\n\r\n    event CertificateIssued(\r\n        uint certId,\r\n        string studentName,\r\n        string ipfsHash\r\n    );\r\n\r\n    constructor() {\r\n        nextCertId = 1000;\r\n    }\r\n\r\n    function issueCertificate(\r\n        string memory _studentName,\r\n        string memory _ipfsHash\r\n    ) public {\r\n        nextCertId++;\r\n\r\n        certificates[nextCertId] = Certificate(\r\n            nextCertId,\r\n            _studentName,\r\n            _ipfsHash\r\n        );\r\n\r\n        emit CertificateIssued(\r\n            nextCertId,\r\n            _studentName,\r\n            _ipfsHash\r\n        );\r\n    }\r\n\r\n    function getCertificate(uint _certId)\r\n        public\r\n        view\r\n        returns (string memory, string memory)\r\n    {\r\n        Certificate memory cert = certificates[_certId];\r\n        return (cert.studentName, cert.ipfsHash);\r\n    }\r\n}\r\n",
  "sourcePath": "D:\\ConfCert-dapp\\contracts\\ConfCert.sol",
  "compiler": {
    "name": "solc",
    "version": "0.8.19+commit.7dd6d404.Emscripten.clang"
  },
  "schemaVersion": "3.4.16",
  "updatedAt": "2026-03-06T16:11:25.172Z",
  "networkType": "ethereum",
  "devdoc": {
    "kind": "dev",
    "methods": {},
    "version": 1
  },
  "userdoc": {
    "kind": "user",
    "methods": {},
    "version": 1
  }
}